:020000040800F2
:10000000A00700200101000829200008211E000887
:100010002520000819030008192800080000000026
:100020000000000000000000000000005520000853
:100030006D030008000000002B200008DB200008F2
:100040001B0100081B0100081B0100081B01000820
:100050001B0100081B0100081B0100081B01000810
:100060001B0100081B0100081B0100081B01000800
:100070001B010008310300081B0100081B010008D8
:100080001B0100081B0100081B0100081B010008E0
:100090001B0100081B0100081B0100081B010008D0
:1000A0001B0100081B0100081B0100081B010008C0
:1000B0001B0100081B0100081B0100081B010008B0
:1000C0001B0100081B0100081B0100081B010008A0
:1000D0001B010008992700081B010008BD27000824
:1000E0001B0100081B0100081B010008DFF80CD0F1
:1000F00000F07EF800480047612D0008A0070020AE
:100100000648804706480047FEE7FEE7FEE7FEE7B1
:10011000FEE7FEE7FEE7FEE7FEE7FEE7492100080F
:10012000ED000008202A04DB203A21FA02F0002129
:10013000704721FA02F3D040C2F1200291400843F7
:1001400019467047D2B201E000F8012B491EFBD2DC
:1001500070470022F6E710B513460A4604461946D2
:10016000FFF7F0FF204610BD30B505462A460B4686
:1001700012F8010B13F8014B08B1A042F8D01CB1E2
:10018000002802D06D1CF1E7284630BD2DE9F05F54
:100190000546002092469B468846064681464024F6
:1001A0001BE02846414647462246FFF7BBFF534621
:1001B0005A46C01A914110D311461846224600F003
:1001C00029F82D1A67EB01084F462246012000212D
:1001D00000F020F817EB00094E41201EA4F10104A5
:1001E000DFDC484631462A464346BDE8F09F000022
:1001F000064C074D06E0E06840F0010394E8070074
:1002000098471034AC42F6D3FFF774FF042F000870
:10021000242F0008202A04DB203A00FA02F10020F3
:1002200070479140C2F1200320FA03F31943904034
:10023000704700002DE9F041002500275DE031A066
:1002400002F012FB052F50D2DFE807F003111F2C3C
:100250003800681CC5B200F0CFF8044634B901205C
:1002600000F0A7F804460CB9002501273DE0681C02
:10027000C5B200F0C1F8044634B9022000F099F884
:1002800004460CB9002502272FE000F071F904465E
:100290000CB9032701E0002500274FF47A7000F025
:1002A000FFFB22E000F0B7F904460CB9042700E098
:1002B00000274FF47A7000F0F3FB16E00026314679
:1002C000022000F0C5F904466CB9104800F0F0F9BE
:1002D0000E4801880EA002F0C7FA40F2DC5000F090
:1002E000DFFBBDE8F081002700BF00BF4FF448707E
:1002F00000F0D6FB0A2D00D100E0A0E700BF00BF50
:10030000EFE70000676F0D0A000000000400002006
:1003100025640D0A0000000000BFFEE701B532238E
:1003200001226946014801F01BFD08BD840200203E
:1003300010B5024800F064FA10BD00005C03002014
:1003400030B590F840500124AC40C56B6C60046837
:1003500063604468102C04D10468A2600468E16002
:1003600003E00468A1600468E26030BD704710B526
:1003700000F002F810BD704770B501F096FE01F074
:100380006BFE012001F08BFE032001F096FE0D2094
:1003900001F09DFE1126304601F078FE4FF4FA6020
:1003A00001F040FD05460DB16C7A00E0FF242046C7
:1003B00070BD2DE9F041054601F077FE01F04CFEDD
:1003C000012001F06CFE042001F077FE022001F014
:1003D0007EFE2846FFF7A2FFEF1D384601F056FECD
:1003E0004FF4FA6001F01EFD06460EB1747A00E08B
:1003F000FF242046BDE8F08170B501F056FE01F003
:100400002BFE012001F04BFE032001F056FE0120DF
:1004100001F05DFE0526304601F038FE4FF4FA602B
:1004200001F000FD05460DB16C7A00E0FF24204686
:1004300070BD000010B5044601F037FE01F00CFE5F
:100440000120FFF76BFF0020FFF768FF0020FFF798
:1004500065FFC82000F024FB1848007858B31748FF
:10046000017817A002F000FA00201449087016481D
:1004700083794278017815A002F0F6F912480078E5
:10048000EF2818D110484078012814D10E488079FF
:10049000072810D10C48807800060B49C97800EB7A
:1004A00001400949097900EB0120074949790844CD
:1004B0002060002010BD0120FCE7000006000020A5
:1004C00025640D0A000000002C0000202530327841
:1004D000202530327820253032780D0A00000000C7
:1004E0002DE9F04781460D4616461F4601F0DDFD19
:1004F00001F0B2FD012001F0D2FD082001F0DDFD88
:100500001B2001F0E4FD4846FFF708FF2812FFF723
:1005100005FFE8B2FFF702FF3012FFF7FFFEF0B26F
:10052000FFF7FCFE09F1240000EB2520E9B20844A6
:1005300000EB2620F1B200EB010A504601F0A6FDC7
:100540004FF4FA6001F06EFC044664B194F809803F
:10055000E07AA17A00EB01203880607B217B00EB00
:100560000120788001E04FF0FF084046BDE8F087A9
:1005700070B501F09AFD01F06FFD012001F08FFDD3
:10058000032001F09AFD032001F0A1FD072630466B
:1005900001F07CFD4FF4FA6001F044FC05460DB11A
:1005A0006C7A00E0FF24204670BD2DE9F04105463D
:1005B00001F07BFD01F050FD012001F070FD0320F2
:1005C00001F07BFD0F2001F082FD1327384601F07A
:1005D0005DFD4FF47A7001F025FC0446BCB1667AEB
:1005E000E07BA17B00EB01202880607CA870A07CD0
:1005F0000006E17C00EB0140217D00EB0120617DE4
:1006000008446860E07D2872607E687200E0FF2622
:100610003046BDE8F08170B501F047FD01F01CFDEA
:10062000012001F03CFD032001F047FD052001F011
:100630004EFD0926304601F029FD4FF4FA6001F025
:10064000F1FB05460DB16C7A00E0FF24204670BD39
:100650002DE9F04106460C4601F027FD01F0FCFCB7
:10066000012001F01CFD062001F027FD062001F00D
:100670002EFD3046FFF752FE2012FFF74FFEE0B28C
:10068000FFF74CFE06F10D0000EB2420E1B200EB79
:100690000108404601F0FAFC4FF4FA6001F0C2FB99
:1006A00007460FB17D7A00E0FF252846BDE8F081BE
:1006B0002DE9F041064601F0F8FC01F0CDFC0120E7
:1006C00001F0EDFC032001F0F8FC1D2001F0FFFC1F
:1006D0002127384601F0DAFC4FF4FA6001F0A2FB62
:1006E000044634B1657AE07AA17A00EB01203080CB
:1006F00000E0FF252846BDE8F0810146002291F880
:100700002100022808D00420886300BF002081F85F
:10071000200000BF012070470868006820F00E002C
:100720000B6818600868006820F001000B6818600A
:1007300091F8403001209840CB6B5860012081F83F
:10074000210000BF002081F8200000BF1046E2E732
:1007500070B50446002594F82100022803D0042037
:10076000A063012548E02068006820F00E002168A1
:1007700008602068006820F00100216808601F49B7
:100780002068884201D1012026E01C4914312068EC
:10079000884201D110201FE0184928312068884282
:1007A00001D1801518E015493C312068884201D1FB
:1007B000801411E0114950312068884202D14FF471
:1007C000803009E00D4964312068884202D14FF43D
:1007D000801001E04FF0807008490839486001201E
:1007E00084F8210000BF002084F8200000BF606B67
:1007F00010B12046616B8847284670BD0800024052
:1008000070B50446E06B05682068066894F84010EF
:10081000042088402840002846D006F00400002824
:1008200042D02068006800F0200028B920680068E5
:1008300020F004002168086057492068884201D1EF
:10084000042027E0544914312068884201D1402017
:1008500020E0514928312068884201D1001519E073
:100860004D493C312068884202D14FF4804011E06C
:10087000494950312068884202D14FF4802009E074
:10088000454964312068884202D14FF4800001E07C
:100890004FF08060404908394860E06A00287AD00B
:1008A0002046E16A884776E094F8401002208840AC
:1008B0002840A0B306F0020088B32068006800F06A
:1008C000200040B92068006820F00A002168086014
:1008D000012084F8210030492068884201D102209B
:1008E00028E02D4914312068884201D1202021E0E0
:1008F000294928312068884201D140151AE026494B
:100900003C312068884202D14FF4005012E0224965
:1009100050312068884203D14FF400300AE017E0DC
:100920001D4964312068884202D14FF4001001E073
:100930004FF0007018490839486000BF002084F863
:10094000200000BFA06A30B32046A16A884722E099
:1009500094F84010082088402840E0B106F00800D4
:10096000C8B12068006820F00E002168086094F883
:10097000401001208840E16B48600120A06384F8AA
:10098000210000BF002084F8200000BF206B10B1C0
:100990002046216B884770BD0800024001460022B6
:1009A00009B901207047164B0868C01A1423B0FB20
:1009B000F3F08000086412480838C863022081F808
:1009C00021000868026843F6F0708243D1E9010310
:1009D0001843CB6818430B6918434B6918438B695C
:1009E0001843CB69184302430868026000208863FB
:1009F000012081F82100002081F8200000BFD1E70C
:100A0000080002402DE9F04104460D4616461F46F7
:100A10004FF0000800BF94F82000012802D1022006
:100A2000BDE8F081012084F8200000BF94F8210087
:100A300001282CD1022084F821000020A063206826
:100A4000006820F00100216808603B4632462946D4
:100A50002046FFF775FCE06A30B12068006840F07E
:100A60000E00216808600BE02068006820F0040098
:100A7000216808602068006840F00A00216808606A
:100A80002068006840F001002168086006E000BFAF
:100A9000002084F8200000BF4FF002084046BFE766
:100AA00070B5044600F0A6F906462546681C10B14C
:100AB00004480078054400BF00F09CF9801BA84260
:100AC000FAD370BD180000202DE9F8470346002234
:100AD00094466EE14FF0010808FA02F4D1F8008064
:100AE00008EA0400A0427DD1DFF8DCA2D1F804803E
:100AF000A8EB0A09D0453AD014DCB8F1030F50D066
:100B000009DCB8F1000F31D0B8F1010F1CD0B8F1F9
:100B1000020F49D120E0B8F1110F18D0B8F1120F2F
:100B200042D11EE0B9F5881F25D006DCB9F5803F1B
:100B300020D0B9F5801F37D11AE0B9F5001F18D0C1
:100B4000B9F5041F30D117E0D1F80CC02DE0D1F871
:100B50000C8008F1040C28E0D1F80C8008F1080C96
:100B600023E0D1F80C8008F10C0C1EE000BF00BFA0
:100B700000BF00BF00BF00BFD1F80880B8F1000F70
:100B800002D14FF0040C0BE0D1F80880B8F1010F4E
:100B900003D14FF0080C1C6102E04FF0080C5C61BF
:100BA00003E04FF0000C00E000BF00BFFF2801D8B9
:100BB000984601E003F104084646FF2802D84FEAB0
:100BC000820803E0A2F108084FEA88084746D6F8F1
:100BD00000804FF00F0909FA07F928EA09080CFA12
:100BE00007F900E088E048EA0908C6F80080D1F873
:100BF000048008F08058B8F1805F7DD100BFDFF835
:100C0000CC81D8F8188048F00108DFF8C091C9F805
:100C10001880C846D8F8188008F00108CDF8008080
:100C200000BF00BF4FEAB9384FEA920958F829507F
:100C30004FEA82784FEA18794FF00F0808FA09F85E
:100C400025EA0805DFF88881434502D14FF0000806
:100C500016E0DFF88081434502D14FF001080FE034
:100C6000DFF87481434502D14FF0020808E0DFF855
:100C70006C81434502D14FF0030801E04FF00408B6
:100C80004FEA82794FEA197908FA09F848EA050526
:100C9000DFF84C814FEA920948F82950D1F80480D6
:100CA00008F48018B8F5801F0AD1DFF83881D8F829
:100CB000008048EA0008DFF82C91C9F8008009E0BC
:100CC000DFF82081D8F8008028EA0008DFF81491C6
:100CD000C9F80080D1F8048008F40018B8F5001FA6
:100CE00010D1DFF8008108F10408D8F8008048EA44
:100CF0000008DFF8F09000E05AE009F10409C9F8B3
:100D000000800DE0DFF8DC8008F10408D8F80080EE
:100D100028EA0008DFF8CC9009F10409C9F800803E
:100D2000D1F8048008F40038B8F5003F0ED1DFF8A0
:100D3000B480A8F10408D8F8008048EA0008DFF879
:100D4000A490A9F10409C9F800800DE0DFF89480AF
:100D5000A8F10408D8F8008028EA0008DFF8849099
:100D6000A9F10409C9F80080D1F8048008F480389A
:100D7000B8F5803F0ED1DFF86C80A8F10808D8F8EC
:100D8000008048EA0008DFF85C90A9F10809C9F87A
:100D900000800DE0DFF84C80A8F10808D8F800804A
:100DA00028EA0008DFF83C90A9F10809C9F800809A
:100DB000521CD1F8008028FA02F8B8F1000F7FF435
:100DC00089AEBDE8F8870000000011100010024055
:100DD00000080140000C01400010014000140140D7
:100DE00008000140080401400AB1016101E00B0460
:100DF0000361704701480068704700001000002040
:100E000003480068034909780844014908607047AD
:100E1000100000201800002010B50848006840F0BD
:100E2000100006490860032000F0A8F8002000F038
:100E300007F800F02BF8002010BD00000020024051
:100E400070B504460E4800784FF47A71B1FBF0F0AB
:100E50000C490968B1FBF0F5284600F0F9FB08B130
:100E6000012070BD102C07D200222146501E00F038
:100E700047F80548046001E00120F2E70020F0E7B0
:100E8000180000200C0000201400002008B500BF4E
:100E90001148806940F001000F4988610846806967
:100EA00000F00100009000BF00BF00BF0846C0690D
:100EB00040F08050C8610846C06900F08050009042
:100EC00000BF00BF00BF0549486820F0E06040F067
:100ED0000070486000BF08BD0010024000000140E3
:100EE00001460846002809DB00F01F0301229A4052
:100EF00043099B0003F1E023C3F8002100BF7047C2
:100F00002DE9F05F80460D461646002701F0BCFC37
:100F1000074639462A46334601F00700C0F1070A62
:100F2000BAF1040F02D94FF0040A01E0C0F1070A38
:100F3000D14600F1040ABAF1070F02D24FF0000ABD
:100F400001E0A0F1030AD4464FF0010A0AFA09FAB7
:100F5000AAF1010A0AEA020A0AFA0CFA4FF0010B96
:100F60000BFA0CFBABF1010B0BEA030B4AEA0B0487
:100F70002146404601F090FCBDE8F09F00BF00F024
:100F80000702064B19684FF6FF031940044B0B4349
:100F900043EA0221014B196000BF70470CED00E0ED
:100FA0000000FA0570B504460D460CB9012070BD6D
:100FB0005A48006800F00700A8420ED2574800685F
:100FC00020F007002843554908600846006800F0F3
:100FD0000700A84201D00120E9E7207800F00200D4
:100FE00002281DD1207800F00400042805D14C48C7
:100FF000406840F4E0604A494860207800F008000A
:10100000082805D14648406840F46050444948608B
:101010004348406820F0F000A16808434049486018
:10102000207800F0010078B36068012806D13C48C0
:10103000006800F4003090B90120B8E76068022829
:1010400006D13748006800F0007040B90120AEE7D3
:101050003348006800F0020008B90120A7E73048D3
:10106000406820F00300616808432D494860FFF79D
:10107000C1FE064609E0FFF7BDFE801B41F2883144
:10108000884202D9032092E707E02548406800F033
:101090000C006168B0EB810FEDD12048006800F0D2
:1010A0000700A8420ED91D48006820F00700284319
:1010B0001A4908600846006800F00700A84201D0FD
:1010C000012074E7207800F00400042807D11448B8
:1010D000406820F4E060E1680843114948602078E6
:1010E00000F00800082808D10D48406820F460503E
:1010F000216940EAC1000A49486000F03FF8084908
:101100004968C1F30311074A515CC84006490860A9
:1011100006480068FFF794FE002048E700200240E0
:1011200000100240D82E00080C00002014000020FF
:1011300001480068704700000C00002000B5FFF770
:10114000F7FF04494968C1F30221034A515CC840D2
:1011500000BD000000100240E82E000800B5FFF7B7
:10116000E7FF04494968C1F3C221034A515CC84002
:1011700000BD000000100240E82E000870B50021FC
:101180000022002400230020134D696801F00C05A3
:10119000F5B1042D02D0082D19D101E00F4819E056
:1011A0000F4DC1F38346AB5D01F4803555B10A4D57
:1011B0006D68C5F340450B4E725D084D5D43B5FB50
:1011C000F2F402E0084D03FB05F4204602E000BF04
:1011D000024800BF00BF70BD0010024000127A003C
:1011E000F02E0008002F000800093D00F8B5044665
:1011F0000CB90120F8BD207800F00100002878D05B
:10120000F848406800F00C0004280CD0F54840680D
:1012100000F00C00082811D1F248406800F480303A
:10122000B0F5803F0AD1EF48006800F40030002894
:101230005FD0606800285CD10120DBE700BF6068F8
:10124000B0F5803F06D1E748006840F48030E549BA
:10125000086028E0606858B9E248006820F48030EF
:10126000E04908600846006820F4802008601AE021
:101270006068B0F5A02F0BD1DA48006840F48020F8
:10128000D84908600846006840F4803008600AE0E9
:10129000D448006820F48030D249086008460068CD
:1012A00020F48020086000BF606888B1FFF7A2FDCD
:1012B000054606E0FFF79EFD401B642801D9032088
:1012C00098E7C848006800F400300028F2D010E029
:1012D000FFF790FD054606E0FFF78CFD401B6428F4
:1012E00001D9032086E7BF48006800F400300028D9
:1012F000F2D1207800F00200022857D1B9484068A6
:1013000000F00C0050B1B748406800F00C0008280D
:1013100018D1B448406800F4803098B9B1480068EA
:1013200000F0020020B12069012801D0012061E70E
:10133000AC48006820F0F800616940EAC100A949A2
:10134000086033E02069E8B10120A7490860FFF791
:1013500051FD054606E0FFF74DFD401B022801D96F
:10136000032047E79F48006800F002000028F2D001
:101370009C48006820F0F800616940EAC100994982
:10138000086013E0002098490860FFF733FD054628
:1013900006E0FFF72FFD401B022801D9032029E7B3
:1013A0009048006800F002000028F2D1207800F098
:1013B000080008282DD1A069B8B101208B49086028
:1013C000FFF718FD054606E0FFF714FD401B022855
:1013D00001D903200EE78348406A00F0020000288C
:1013E000F2D0012000F022FE13E000207F490860C7
:1013F000FFF700FD054606E0FFF7FCFC401B022856
:1014000001D90320F6E67748406A00F00200002880
:10141000F2D1207800F00400042873D1002771482D
:10142000C06900F0805070B900BF6E48C06940F0DC
:1014300080506C49C8610846C06900F08050009037
:1014400000BF00BF01276A48006800F48070B0B98F
:101450006748006840F4807065490860FFF7CAFC7F
:10146000054606E0FFF7C6FC401B642801D90320AF
:10147000C0E65F48006800F480700028F2D000BF2A
:10148000E068012806D15748006A40F0010055493C
:10149000086227E0E06858B95248006A20F001006D
:1014A000504908620846006A20F00400086219E00A
:1014B000E06805280BD14B48006A40F00400494918
:1014C00008620846006A40F0010008620AE04548E8
:1014D000006A20F00100434908620846006A20F0D3
:1014E0000400086200BFE068A0B1FFF783FC054676
:1014F00009E0FFF77FFC401B41F28831884202D9A6
:10150000032077E622E03748006A00F00200002856
:10151000EFD012E0FFF76EFC054608E0FFF76AFC2B
:10152000401B41F28831884201D9032062E62D48F0
:10153000006A00F002000028F0D1012F05D12948EF
:10154000C06920F080502749C86100BFE069C8B376
:101550002448406800F00C00082860D0E0690228A8
:1015600048D1002020490866FFF744FC054606E004
:10157000FFF740FC401B022801D903203AE6194836
:10158000006800F000700028F2D1206AB0F5803FBA
:1015900007D11448406820F40030A168084311497D
:1015A0004860D4E9080108430E49496821F47411E0
:1015B00008430C49486001200B490866FFF71AFCF4
:1015C000054607E03DE0FFF715FC401B022801D966
:1015D00003200FE60348006800F000700028F2D0F6
:1015E0002FE000000010024000004242800442420E
:1015F00000700040002014490866FFF7FBFB054619
:1016000006E0FFF7F7FB401B022801D90320F1E5B4
:101610000E48006800F000700028F2D111E0E06987
:10162000012800D1E6E50948466806F48031206AC1
:10163000814204D106F47011606A814201D0012018
:10164000D8E50020D6E5000000004242001002402C
:1016500070B504462546681EB0F1807F01D3012095
:101660000FE0681E4FF0E02148610F214FF0FF307E
:1016700001F012F900204FF0E02188610720086195
:10168000002070BD7047704710B5044600BF00BF12
:1016900021680C3151E8001F21F4907021680C3151
:1016A00041E80002002AF3D100BF00BF00BF21685B
:1016B000143151E8001F21F001002168143141E884
:1016C0000002002AF3D100BF206B01280ED100BF19
:1016D00000BF21680C3151E8001F21F01000216883
:1016E0000C3141E80002002AF3D100BF20684069B4
:1016F00000F0400030B300BF00BF2168143151E852
:10170000001F21F040002168143141E80002002A46
:10171000F3D100BFE06B50B11048E16B4863E06B60
:10172000FFF716F8C0B1E06B416B884714E000206A
:10173000E085202084F84200002020632046FFF747
:10174000A2FF09E00020E085202084F8420000206C
:1017500020632046FFF797FF002010BDDD22000820
:1017600070B50446002520684069C0F3C01594F8A0
:101770004100212817D1B5B100BF00BF2168143145
:1017800051E8001F21F080002168143141E8000277
:10179000002AF3D100BFA06B10B1A06BFEF7ADFF24
:1017A000204600F0EFFD20684069C0F3801594F8F2
:1017B0004200222817D1B5B100BF00BF2168143103
:1017C00051E8001F21F040002168143141E8000277
:1017D000002AF3D100BFE06B10B1E06BFEF78DFF84
:1017E000204600F089FD002070BD70472DE9F84FBC
:1017F0000446206805682068C668206847694FF07D
:101800000009CA4605F00F09B9F1000F0AD105F029
:10181000200038B106F0200020B1204600F0C5FDC0
:10182000BDE8F88FB9F1000F7BD007F0010018B9BF
:1018300006F49070002874D005F0010030B106F471
:10184000807018B1606C40F00100606405F0040025
:1018500030B107F0010018B1606C40F00200606424
:1018600005F0020030B107F0010018B1606C40F0E3
:101870000400606405F0080048B106F0200010B9CB
:1018800007F0010018B1606C40F008006064606C03
:10189000002845D005F0200028B106F0200010B146
:1018A000204600F082FD20684069C0F3801A606C19
:1018B00000F0080010B9BAF1000F2CD0204600F05B
:1018C0001BFD2068406900F0400000B300BF00BF6E
:1018D0002168143151E8001F21F0400021681431C3
:1018E00041E80002002AF3D100BFE06B50B1774815
:1018F000E16B4863E06BFEF72BFF88B1E06B416B57
:1019000088470DE02046FFF770FF09E009E0204618
:10191000FFF76BFF04E02046FFF767FF00206064DD
:101920007EE7206B012877D105F01000002873D0E6
:1019300006F010000028FAD000BF002000902068B8
:101940000068009020684068009000BF00BF2068D9
:10195000406900F0400000285FD0E06B00684068FC
:101960001FFA80F8B8F1000F55D0A08D404552DD28
:10197000A4F82E80E06B8069202843D000BF00BF10
:1019800021680C3151E8001F21F4807021680C316E
:1019900041E80002002AF3D100BF00BF00BF216868
:1019A000143151E8001F21F001002168143141E891
:1019B0000002002AF3D100BF00BF00BF216814312C
:1019C00051E8001F21F040002168143141E8000275
:1019D000002AF3D100BF202084F8420000202063B9
:1019E00000BF00BF21680C3151E8001F21F010003A
:1019F00021680C3141E80002002AF3D100BFE06BFE
:101A0000FEF77BFE02206063A08DE28D801A81B21A
:101A10002046FFF737FE03E742E0A08DE18D401A34
:101A20001FFA80F8E08DD0B3B8F1000F37D000BFB7
:101A300000BF21680C3151E8001F21F4907021682B
:101A40000C3141E80002002AF3D100BF00BF00BF03
:101A50002168143151E8001F21F001002168143180
:101A600041E80002002AF3D100BF202084F84200A0
:101A70000020206300BF00BF21680C3151E8001F27
:101A800021F0100021680C3141E80002002AF3D156
:101A900000BF0220606341462046FFF7F3FDBFE62A
:101AA00005F0800030B106F0800018B1204600F04B
:101AB000FDFDB5E605F0400030B106F0400018B17C
:101AC000204600F04FFCABE600BFA9E6A1210008CC
:101AD00010B504460CB9012010BDA06900B100E0AA
:101AE00000BF94F8410028B9002084F84000204647
:101AF00000F02AF8242084F841002068C06820F40F
:101B000000502168C860204600F0CEFC20680069C3
:101B100020F49040216808612068406920F02A0084
:101B2000216848612068C06840F400502168C8609E
:101B300000206064202084F8410084F842000020E6
:101B4000606300BFC8E7000010B586B004460020FF
:101B5000029003900490059062492068884237D132
:101B600000BF6148806940F480405F498861084651
:101B7000806900F48040019000BF00BF00BF0846AC
:101B8000806940F0040088610846806900F0040024
:101B9000019000BF00BF481502900220039003206F
:101BA000059002A95148FEF78FFF4FF48060029024
:101BB00000200390049002A94C48FEF785FF002204
:101BC00011462520FFF79CF92520FFF789F986E0CB
:101BD0004749206888422ED100BF4348C06940F47D
:101BE00000304149C8610846C06900F400300190E6
:101BF00000BF00BF00BF0846806940F00400886154
:101C00000846806900F00400019000BF00BF042076
:101C10000290022003900320059002A93348FEF7AA
:101C200053FF0820029000200390049002A92F483F
:101C3000FEF74AFF53E02F49206888424FD100BF8A
:101C40002948C06940F480202749C8610846C06916
:101C500000F48020019000BF00BF00BF08468069EB
:101C600040F0080088610846806900F00800019093
:101C700000BF00BF081502900220039003200590CA
:101C800002A91D48FEF720FF4FF4006002900020DB
:101C90000390049002A91848FEF716FF1748184948
:101CA0000860002048600021154881608021C160E3
:101CB0000021016141618161C161FEF76FFE08B1E0
:101CC000FEF759FB00BF0E48E063446200BF0022EC
:101CD00011462720FFF714F92720FFF701F906B076
:101CE00010BD000000380140001002400008014013
:101CF0000044004000480040000C01403000024019
:101D00005C03002070B504460D46164694F8420068
:101D100020280BD105B10EB9012070BD0020206331
:101D200032462946204600F03DFCF6E70220F4E763
:101D300070B504460D46164694F8420020280BD193
:101D400005B10EB9012070BD00202063324629463E
:101D5000204600F08BFCF6E70220F4E7704770475E
:101D60002DE9F84F04460E46174699464FF0000AF3
:101D700094F84100202850D106B117B90120BDE8E0
:101D8000F88F00206064212084F84100FFF732F8CA
:101D90008246A784E784A068B0F5805F04D12069FB
:101DA00010B90025B04602E035464FF000081EE0AD
:101DB0005346002280212046CDF8009000F0A6FC7A
:101DC00020B1202084F841000320D8E745B9B8F8B5
:101DD0000000C0F308002168486008F1020803E031
:101DE0002878216848606D1CE08C401EE084E08CFF
:101DF0000028DDD15346002240212046CDF8009036
:101E000000F084FC20B1202084F841000320B6E7D4
:101E1000202084F841000020B1E70220AFE770479E
:101E200000BFFEE77CB50546EF208DF800000120DD
:101E30008DF8010018480068000E8DF80200164861
:101E40000068000C8DF8030013480088000A8DF824
:101E50000400114800788DF8050007208DF8060071
:101E600000208DF8070010E00120FEF719FE0B4856
:101E7000007850B100200949087069460848FEF70B
:101E800073F904460CB120467CBD681E80B2051E65
:101E9000EAD100BFF8E700000000002006000020A3
:101EA0002C00002008B500BF0A48406940F001003E
:101EB000084948610846406900F00100009000BFF1
:101EC00000BF002211460D20FFF71AF80D20FFF782
:101ED00007F808BD0010024000B585B00020019051
:101EE00002900390049000BF1B48806940F02000DE
:101EF000194988610846806900F02000009000BF01
:101F000000BF00BF0846806940F0040088610846B1
:101F1000806900F00400009000BF00BF00BF0846C9
:101F2000806940F0080088610846806900F0080078
:101F3000009000BF00BF012211460848FEF754FF81
:101F400001200190029003900320049001A903480E
:101F5000FEF7BAFD05B000BD00100240000C0140C4
:101F600010B50B480B4908604FF4614048600021F0
:101F700008488160C16001610C21416100218161DB
:101F8000C161FFF7A5FD08B1FEF7F5F910BD00002E
:101F9000003801408402002010B50B480B4908604E
:101FA0004FF4E1304860002108488160C160016160
:101FB0000C21416100218161C161FFF789FD08B1F8
:101FC000FEF7D9F910BD000000440040CC0200200B
:101FD00010B51148114908604FF4E1304860002104
:101FE0000E488160C16001610C2141610021816165
:101FF000C161FFF76DFD08B1FEF7BDF90748006844
:10200000C06840F0100005490968C86064220449AE
:102010000248FFF777FE10BD00480040140300207F
:102020002002002000BFFEE77047704708B508494E
:102030000968C9084FF47A72B1FBF2F1414300918B
:1020400000BF00BF00994A1E00920029F9D108BDC7
:102050000C0000207047000010B50B490968080EFD
:10206000FEF75CF908480068C0F30740FEF756F930
:1020700005480088C0F30720FEF750F902490878A8
:10208000FEF74CF910BD00000000002010B504461A
:102090002012FEF743F9E0B2FEF740F910BD10B58B
:1020A00004462046FEF73AF910BD10B5EF20FEF7C2
:1020B00035F90120FEF732F910BD10B50446C4F31E
:1020C0000720FEF72BF9E0B2FEF728F910BD10B596
:1020D00004462046FEF722F910BD10B5FEF790FE2B
:1020E00010BD00B58FB0282105A8FEF732F81421E5
:1020F0006846FEF72EF801200590000406900020A7
:1021000007900120099002200C90C1030D914FF41B
:10211000E0110E9105A8FFF769F808B1FEF72BF959
:102120000F20009002200190002002904FF4806068
:1021300003900020049002216846FEF733FF08B1A7
:10214000FEF719F90FB000BD1148006840F001001A
:102150000F490860084640680E4908400C4948602D
:10216000084600680C4908400949086008460068AC
:1021700020F4802008600846406820F4FE00486093
:102180004FF41F008860C8030449086070470000CE
:10219000001002400000FFF8FFFFF6FE08ED00E02F
:1021A00070B505466C6A0020E085E0842046FFF7A4
:1021B0001CFB70BD70B506460025746A2068406936
:1021C000C0F3C01594F84100212805D125B10020A5
:1021D000E084204600F0D6F820684069C0F38015FE
:1021E00094F84200222805D125B10020E085204640
:1021F00000F082F8606C40F0100060642046FFF749
:10220000F4FA70BD70B505466C6A2868006800F085
:102210002000002842D1E08500BF00BF21680C31BA
:1022200051E8001F21F4807021680C3141E8000260
:10223000002AF3D100BF00BF00BF2168143151E86C
:10224000001F21F001002168143141E80002002A3A
:10225000F3D100BF00BF00BF2168143151E8001F57
:1022600021F040002168143141E80002002AF3D136
:1022700000BF202084F84200206B01280ED100BF4F
:1022800000BF21680C3151E8001F21F010002168C7
:102290000C3141E80002002AF3D100BF0020606346
:1022A000206B012804D1A18D2046FFF7EBF902E055
:1022B0002046FFF753FD70BD70B505466C6A0120DE
:1022C0006063206B012805D1A08D41082046FFF7EF
:1022D000D9F902E02046FFF742FD70BD70B5054612
:1022E0006C6A0020E085202084F8420000202063F2
:1022F0002046FFF7C8F970BD00BF00BF02680C326E
:1023000052E8002F22F4907102680C3242E8001368
:10231000002BF3D100BF00BF00BF0268143252E8A7
:10232000002F22F001010268143242E80013002B52
:10233000F3D100BF016B01290ED100BF00BF0268BD
:102340000C3252E8002F22F0100102680C3242E8F1
:102350000013002BF3D100BF202180F84210002190
:102360000163704710B504462068C06820F0400043
:102370002168C860202084F841002046FFF74FFD07
:10238000002010BD00BF00BF02680C3252E8002FD1
:1023900022F0C00102680C3242E80013002BF3D196
:1023A00000BF202180F841107047F8B5044694F82A
:1023B0004200222875D1A068B0F5805F0CD1206959
:1023C00050B90025A66A20684068C0F30800308034
:1023D000A06A801CA06215E0A56A0026A068B0F57E
:1023E000805F03D0A06828B9206918B920684068C8
:1023F000287004E02068406800F07F002870A06A20
:10240000401CA062E08D401E80B2E085002846D1CD
:102410002068C06820F020002168C8602068C0687B
:1024200020F480702168C8602068406920F00100B5
:1024300021684861202084F8420000206063206BFE
:10244000012826D10020206300BF00BF21680C3185
:1024500051E8001F21F0100021680C3141E8000212
:10246000002AF3D100BF2068006800F01000102897
:102470000AD100BF0020009020680068009020680A
:102480004068009000BF00BFA18D2046FFF7FAF81A
:1024900002E02046FFF762FC0020F8BD01E00020CA
:1024A000FBE70220F9E7000070B5044621680969DE
:1024B00021F44051E2681143226811612269A16848
:1024C0001143626941EA02052168C96841F20C6260
:1024D000914329432268D1602168496921F4407100
:1024E000A2691143226851612D4A2168914202D1AB
:1024F000FEF734FE01E0FEF721FE00EBC00101EB28
:10250000001162689200B1FBF2F100EBC00202EB35
:10251000001263689B00B2FBF3F26423B2FBF3F298
:1025200002EBC20303EB0212A1EB8201322202EBA7
:1025300001116422B1FBF2F101F0F00100EBC002E5
:1025400002EB001263689B00B2FBF3F26423B2FB60
:10255000F3F201EB021200EBC00101EB0011636822
:102560009B00B1FBF3F100EBC00303EB00136668C3
:10257000B600B3FBF6F36426B3FBF6F303EBC30636
:1025800006EB0313A1EB8301322303EB0111642358
:10259000B1FBF3F101F00F0111442268916070BDAD
:1025A0000038014077B581B0044615460298A06214
:1025B000A58500206064222084F842002848E16B51
:1025C00088622848E16BC8622748E16B08630020F5
:1025D000E16B486302AE32682368191D2B46E06B3D
:1025E000FEF710FA00BF00200090206800680090FD
:1025F00020684068009000BF00BF206970B100BF34
:1026000000BF21680C3151E8001F41F4807021683F
:102610000C3141E80002002AF3D100BF00BF00BF27
:102620002168143151E8001F41F001002168143184
:1026300041E80002002AF3D100BF00BF00BF2168BB
:10264000143151E8001F41F040002168143141E885
:102650000002002AF3D100BF002004B070BD0000CA
:1026600005220008B9220008B521000810B503466C
:1026700099629A85DA8500205864222083F8420006
:10268000186928B11868C06840F480701C68E06060
:102690001868406940F001001C6860611868C068F3
:1026A00040F020001C68E060002010BD014691F859
:1026B0004100212828D18868B0F5805F0BD10869D6
:1026C00048B90A6A1088C0F308000B685860086AA5
:1026D000801C086205E00B6A581C086218780B68B9
:1026E0005860C88C401E80B2C88458B90868C06859
:1026F00020F080000B68D8600868C06840F0400097
:102700000B68D860002070470220FCE72DE9F843F1
:1027100004460D4617469846089E31E0701C70B37B
:10272000FEF768FBA0EB0800B04200D816B9032002
:10273000BDE8F8832068C06800F00400F8B1802D7F
:102740001ED0402D1CD020680068C0F3C000B0B17E
:1027500000BF00200090206800680090206840685A
:10276000009000BF00BF2046FFF7C6FD0820606450
:1027700000BF002084F8400000BF0120D8E7FFE739
:10278000206800682840A84201D1012000E0002014
:10279000B842C3D00020CBE710B5064800680468F3
:1027A0000448FFF723F80448204010B1014800F026
:1027B00035F810BD840200201000001008B5124842
:1027C00000680068C0F30010C8B100BF002000908E
:1027D0000D480068006800900B4800684068009051
:1027E00000BF00BF0848FEF7BBFF0848006840680C
:1027F000C0F16400064908700120064908700248CB
:10280000FEF7F4FF08BD0000140300205C03002065
:10281000070000200800002000BFFEE738B504468E
:1028200000BF002000900D480068006800900B4831
:1028300000684068009000BF00BF0848C08DC0F528
:10284000FA70074908702046FEF71EFF4FF4FA722F
:1028500004490248FFF76CFA38BD000084020020EA
:10286000060000202C0000200FB4054B10B503A972
:10287000044A029800F034F810BC5DF814FB000024
:10288000452D00081C00002002480068C0F302200B
:10289000704700000CED00E010B5002804DB0A07CB
:1028A000130E054A135406E00A07140E034A00F0FB
:1028B0000F031B1FD45410BD00E400E018ED00E02E
:1028C00002E008C8121F08C1002AFAD170477047F9
:1028D000002001E001C1121F002AFBD17047000057
:1028E0002DE9FF4F8DB00F460546002606E025284E
:1028F0000BD0DDE90F1290476D1C761C287800285C
:10290000F5D111B03046BDE8F08F0024A246A146B3
:102910000122EC4900E0044315F8013F203B02FA94
:1029200003F00842F7D128782A2810D06FF02F0240
:102930002878A0F13001092914D80AEB8A0102EBAA
:10294000410144F0020400EB010A6D1CF0E701CFE5
:102950005FEA000A03D544F40054CAF1000A44F0C7
:1029600002046D1C28782E2817D115F8010F44F0A9
:1029700004042A280ED06FF02F022878A0F130012D
:1029800009290AD809EB890102EB410100EB010991
:102990006D1CF2E757F8049B6D1C28786C280FD04B
:1029A00006DC4C2817D068280DD06A2814D104E022
:1029B000742810D07A280FD10DE044F400140AE0F6
:1029C00044F4801401E044F440146978814202D157
:1029D00004F580146D1C6D1C2A786E2A1FD00CDC47
:1029E000632A31D004DC002A8BD0582A11D1A3E00D
:1029F000642A68D0692A0CD165E0732A2ED004DCE1
:102A00006F2A73D0702A04D19BE0752A6FD0782A80
:102A10006ED01046DDE90F129047761C50E1C4F3EA
:102A20000250022806D0032809D0042801CF09D07B
:102A3000066045E101CFF117C0E9006140E101CF37
:102A400006803DE106703BE117F8040B8DF80000AD
:102A500000208DF80100EB46012003E057F804BB8D
:102A60004FF0FF3061074FF0000102D40DE008F194
:102A70000101884649450FDA8045F8DB1BF808104C
:102A80000029F4D108E008F1010188468142FADB0F
:102A90001BF808100029F6D1DDE90F23AAEB080086
:102AA0008146214600F036F9304400EB080604E088
:102AB000DDE90F121BF8010B9047B8F10108F7D2BE
:102AC00021464846F7E00A21C4F302534FF0000BB9
:102AD0000891022B04D001CFC117032B09D00AE0C3
:102AE000FF1D27F00707F7E8020108E032E01FE0CA
:102AF00020E000B2C117042B01D140B2C117031E60
:102B000071F1000307DA4FF0000CD0EB0C006CEB16
:102B100001012D2302E0230504D52B238DF8243059
:102B2000012303E0E30701D02023F7E7984658E0AC
:102B30000A2110E010210EE010204FF0000B089049
:102B40000CE010214FF0000B44F004044FF0080992
:102B5000089103E008214FF0000B0891C4F30253E1
:102B6000022B04D001CF0021032B06D006E0FF1D6D
:102B700027F00707F7E8020103E080B2042B00D139
:102B8000C0B24FF0000823072BD5702A07D0DDF81C
:102B900020C08CF0100C5CEA0B0C05D00EE040233A
:102BA0008DF82430012308E050EA010306D03023D9
:102BB0008DF824308DF8252002239846DDF820C0BA
:102BC0008CF0080C5CEA0B0C0BD150EA010301D12C
:102BD000630706D530238DF824304FF00108A9F1A2
:102BE0000109582A04D038A20B9208AA0A920BE0D5
:102BF0003AA2F9E75B46089AFDF7C8FA0B9B9B5C83
:102C00000A9A521E0A92137050EA0102F2D10A98EF
:102C1000ADEB000000F1200B600702D524F48034F6
:102C200001E04FF00109D94502DDA9EB0B0000E0FE
:102C3000002000EB0B0141440890AAEB010AE003DD
:102C400006D4DDE90F232146504600F063F8064420
:102C50004FF0000908E009A911F80900DDE90F1299
:102C6000904709F10109761CC145F4DBE0030CD55E
:102C7000DDE90F232146504600F04CF8064404E0FD
:102C8000DDE90F1230209047761C0899481E089005
:102C90000029F5DC08E00A980A990078491C0A9195
:102CA000DDE90F129047761CBBF10001ABF1010B7F
:102CB000F1DC21465046DDE90F2300F019F8064407
:102CC0006D1C1BE6092801003031323334353637AC
:102CD0003839616263646566000000003031323368
:102CE0003435363738394142434445460000000008
:102CF0002DE9F041044600251E461746880404D4F9
:102D000005E039462020B0476D1C641EF9D52846E1
:102D1000BDE8F0812DE9F041044600251E469046AD
:102D2000C80301D5302700E02027880404D505E03A
:102D300041463846B0476D1C641EF9D52846BDE8AB
:102D4000F081000013B50C464FF0FF3301226946B5
:102D50000248FFF705F800981CBD0000CC020020D7
:102D6000FEF75AF8FFF7BDF9FFF7B6F8FFF79AF844
:102D7000FFF7F6F8FFF710F9FFF72AF94FF4FA72A8
:102D800028492948FEF7D4FF27480068C06840F06A
:102D9000100025490968C86043E000BF2348FDF7DB
:102DA00049FB0028FAD12248FDF782FC2148FDF7B3
:102DB000FCFB1F480088002826DD24E000F054F8C2
:102DC0001D480078F8B100201B4908701B491CA061
:102DD000FDF7CAF908B1FDF7CAFA18491AA0FDF7BC
:102DE000C3F920B1002201211948FDF7FDFF64213C
:102DF0001248FDF7AEF900201649087064220F4909
:102E00001548FEF77FFFD9E74FF6FF73092213A19C
:102E10001148FEF7A5FFFDF70DFA4FF47A70FDF7A4
:102E20003FFEBAE72C0000208402002000000020B2
:102E300004000020200000200800002020020020C4
:102E4000636C6561720000003131313100000000B7
:102E5000000C014007000020140300206E6F206664
:102E6000696E67657200000038B5FDF7C5FA044663
:102E7000DCB90120FDF79DFA0446B4B96B464FF466
:102E8000967200210120FDF72BFB044654B94FF642
:102E9000FF73082205A10848FEF762FF07A0FFF7AD
:102EA000E3FC02E008A0FFF7DFFC38BD636C6F6352
:102EB0006B20696E000000001403002073756363CB
:102EC00065737320310D0A006572726F7220666936
:102ED0006E6765720D0A000000000000000000002F
:102EE00001020304060708090000000001020304B0
:102EF00002030405060708090A0B0C0D0E0F10103B
:102F000001020000242F0008000000202000000023
:102F1000C0280008442F000820000020800700007F
:102F2000D0280008FFFFFFFF0000000000000000A5
:102F30000024F40000000000100000000100000068
:042F4000000000008D
:04000005080000ED02
:00000001FF
